:100000000C9434000C9451000C9451000C94510049
:100010000C9451000C9451000C9451000C9451001C
:100020000C9451000C9451000C9451000C9451000C
:100030000C9451000C9451000C9477000C945100D6
:100040000C9451000C9451000C9497010C945100A5
:100050000C9451000C9451000C9451000C945100DC
:100060000C9451000C94510011241FBECFEFD8E026
:10007000DEBFCDBF12E0A0E0B1E0E2E2F0E102C0FD
:1000800005900D92A631B107D9F722E0A6E1B2E0C2
:1000900001C01D92A434B207E1F70E943A050C9406
:1000A0000F080C94000095B19E7D95B998B1937F8F
:1000B00098B980FD289A81FD2D9A82FD429A83FD90
:1000C000439A5F9A85E08A95F1F700005F9887EC84
:1000D00090E00197F1F700C00000089582E084BD30
:1000E00093E095BD99EF97BD80936E0008951F92A0
:1000F0001FB61F9211248F939F93AF93BF9380914C
:100100001A0290911B02A0911C02B0911D0201964F
:10011000A11DB11D80931A0290931B02A0931C0293
:10012000B0931D02BF91AF919F918F911F901FBE01
:100130001F901895F89460911A0270911B0280919B
:100140001C0290911D0278940895CF93DF9300D004
:1001500000D000D0CDB7DEB789839A830E949A0081
:100160006B837C838D839E830E949A002B813C81CC
:100170004D815E81621B730B840B950B49815A8103
:10018000641775078105910578F30F900F900F9014
:100190000F900F900F90DF91CF9108951092C500AE
:1001A00087E68093C40088E98093C10086E080934D
:1001B000C20008959091C00095FFFCCF8093C600C7
:1001C0000895CF93DF93EC018881811103C0DF9103
:1001D000CF91089521960E94DA00F6CFDF92EF9238
:1001E000FF920F931F93CF93DF93CDB7DEB728977E
:1001F0000FB6F894DEBF0FBECDBF8C0100976CF533
:100200008DE20E94DA00119501951109FE013196E7
:1002100020E07F01C8016AE070E00E94D705DD247C
:10022000D394D20E805D80838B01672B21F02D2D1E
:100230003196273079F7DA948FEFD8121FC02896BD
:100240000FB6F894DEBF0FBECDBFDF91CF911F91E7
:100250000F91FF90EF90DF900895C1F680E328960C
:100260000FB6F894DEBF0FBECDBFDF91CF911F91C7
:100270000F91FF90EF90DF900C94DA00F701ED0DF5
:10028000F11D80810E94DA00D6CFCF92DF92EF92EB
:10029000FF92CF93DF9300D000D0CDB7DEB76B01D4
:1002A0007C0140E050E09A010E946C0687FF07C085
:1002B0008DE20E94DA00F7FAF094F7F8F094B601B4
:1002C000C7010E94710669837A838B839C8389812D
:1002D0009A810E94EE008EE20E94DA0029813A8122
:1002E000B901330F880B982F0E94A9069B01AC011E
:1002F000B601C7010E94FF0520E030E040E251E472
:100300000E945E0720E030E040E05FE30E940006CC
:100310000E947106CB010F900F900F900F90DF910C
:10032000CF91FF90EF90DF90CF900C94EE001F9252
:100330001FB61F9211248F939F93EF93FF93809189
:10034000C6008A3011F08D30B9F480911F028115FA
:1003500049F0E0911F02F0E0E05EFD4F108281E085
:1003600080931E0210921F02FF91EF919F918F9137
:100370001F901FBE1F90189590911F029F31A0F7EC
:10038000E0911F0291E09E0F90931F02F0E0E05E6B
:10039000FD4F8083E9CFCF93DF93CDB7DEB7A09732
:1003A0000FB6F894DEBF0FBECDBF80911E0281153F
:1003B00069F1F89460E272E0CE0101960E94F207C2
:1003C00010921E02789444E050E067E371E0CE01A1
:1003D00001960E94F907892B31F5CE0105960E94FE
:1003E000CB079C013130DCF02FEF209343021092B9
:1003F000410284E091E00E94E1008091430290E09C
:100400000E94EE0083E192E00E94E100A0960FB608
:10041000F894DEBF0FBECDBFDF91CF91089537FFB7
:10042000E4CF20E0E2CF6CE071E0CE0101960E94C3
:10043000E907892B41F481E0809341021092430245
:1004400081E191E0E1CF8CE191E0DECFCF93C82F45
:100450005A9882958F700E9453008C2F8F700E9443
:10046000530087EC90E00197F1F700C00000C15005
:10047000C23030F48FE39FE10197F1F700C0000034
:10048000CF910895CF93C82F5A9A82958F700E946A
:1004900053008C2F8F700E94530087EC90E00197DF
:1004A000F1F700C00000CF910895CF93DF93EC01E6
:1004B0008881811103C0DF91CF91089521960E9418
:1004C0004202F6CF91E0811101C090E080E4899F63
:1004D000802D1124860F80680C94260281E00C94F4
:1004E0002602DF92EF92FF920F931F93CF93DF9339
:1004F000CDB7DEB728970FB6F894DEBF0FBECDBFDD
:100500008C0100976CF58DE20E94420211950195D5
:100510001109FE01319620E07F01C8016AE070E018
:100520000E94D705DD24D394D20E805D80838B0199
:10053000672B21F02D2D3196273079F7DA948FEF44
:10054000D8121FC028960FB6F894DEBF0FBECDBFDD
:10055000DF91CF911F910F91FF90EF90DF90089561
:10056000C1F680E328960FB6F894DEBF0FBECDBF6C
:10057000DF91CF911F910F91FF90EF90DF900C943E
:100580004202F701ED0DF11D80810E944202D6CF9B
:100590008AB184688AB984B1816284B987B18C6078
:1005A00087B98BB18B778BB985B18E7D85B988B1D1
:1005B000837F88B92FEF83EF91E0215080409040F6
:1005C000E1F700C0000083E00E9453008FE19EE449
:1005D0000197F1F700C0000083E00E94530087E517
:1005E00092E00197F1F700C0000083E00E94530001
:1005F00087E592E00197F1F700C0000082E00E94D9
:10060000530087E592E00197F1F700C0000088E20F
:100610000E9426028CE00E94260281E00E942602AF
:100620008FE39FE10197F1F700C0000086E00C9492
:1006300026028AB188678AB984B1866084B98BB191
:1006400087788BB9109289001092880010928B00E5
:1006500010928A0081EA809380008AE08093810072
:100660000895109289001092880010928B001092C9
:100670008A008BB187788BB91092420210924002A7
:1006800008955B9A5C985D9A5E98282F30E03093CD
:1006900089002093880030938B0020938A008093F8
:1006A000420281E08093400208955B9A5C985D98D5
:1006B0005E9A90E0909389008093880090938B00DD
:1006C00080938A0082E08093400208955B985C9A50
:1006D0005D9A5E9890E09093890080938800909353
:1006E0008B0080938A0083E0809340020895249ACF
:1006F00023982C982B9808950F931F93CF93DF93F3
:100700002C982AE02A95F1F700C02C9A85E38A9567
:10071000F1F700002C9860E375E780E090E01B990A
:1007200033C000977040604031F51B9B4AC0603376
:1007300025E7720781059105B9F50E94A70628E211
:100740003EE74CE05DE30E945E0720E030E040E0E1
:100750005FE30E945E078B01D82FC92F20E030E0B5
:1007600048EC53E40E9459071816B4F400E010E076
:10077000C3E4D8EC11C0615071098109910925E0E9
:100780002A95F1F70000CBCF672B682B692BA9F4D2
:1007900000E010ECC4E4D9E7B8018D2F9C2FDF9165
:1007A000CF911F910F91089525E02A95F1F7000050
:1007B0006F5F7F4F8F4F9F4FB8CF80E090E0BC01BD
:1007C000B4CF603325E772078105910509F0B5CFF5
:1007D000DFCF86E90E94550380E991E00E94A500E1
:1007E0000E94310388EC90E00C94A50086E90E94F9
:1007F000660380E991E00E94A5000E94310388EC25
:1008000090E00C94A50086E90E94660380E293E0E4
:100810000E94A5000E94310388EC90E00C94A50092
:1008200086E90E94550380E293E00E94A5000E94A1
:10083000310388EC90E00C94A500CF930E94E9036B
:100840000E947C0320E030E040EA50E40E94590717
:10085000C2E01816DCF00E9403040E947C0320E032
:1008600030E040EA50E40E945907C3E0181674F0E3
:100870000E9410040E947C03C1E020E030E040EAC6
:1008800050E40E94590718160CF0C0E08C2FCF914D
:100890000895CF93DF9300D000D0CDB7DEB78AE2C2
:1008A00091E00E94E1008091000190910101A091EE
:1008B0000201B091030189839A83AB83BC8320E05A
:1008C00030EC49E754E4BC01CD010E94590787FD93
:1008D00033C080E391E00E94E10086E391E00E9452
:1008E000E1008091420290E00E94EE008CE391E0F2
:1008F0000E94E10080914002823029F1833031F181
:10090000813039F582E491E00E94E10081E591E0D7
:100910000E94E100809141028115F1F080E891E0B0
:100920000E94E10083E192E00F900F900F900F90F2
:10093000DF91CF910C94E10069817A818B819C8158
:100940000E944501CACF86E491E0DECF8CE491E0BD
:10095000DBCF8CE091E0D8CF20E030E040EA50E4FB
:100960006091000170910101809102019091030159
:100970000E946C0618161CF08AE591E0D1CF8EE833
:1009800091E0CECFCF93DF9300D000D0CDB7DEB7CC
:100990000E946E0280E80E94260289E391E00E9494
:1009A00055028091000190910101A0910201B09146
:1009B000030189839A83AB83BC8320E030EC49E751
:1009C00054E4BC01CD010E94590787FD2AC083E68B
:1009D00091E00E94550287E691E00E9455028091C5
:1009E000420290E00E94710280EC0E9426028091F7
:1009F0004002823001F1833009F1813011F58DE63A
:100A000091E00E945502809141028115E9F08FE743
:100A100091E00F900F900F900F90DF91CF910C9479
:100A2000550269817A818B819C810E947106CB017C
:100A30000E947102D0CF86E491E0E3CF83E791E09A
:100A4000E0CF89E791E0DDCF20E030E040EA50E4FC
:100A50006091000170910101809102019091030168
:100A60000E946C0618161CF086E891E0D2CF8DE843
:100A700091E0CFCF0E9419030E9477030E94CE001D
:100A80000E94C8020E946E0078940E946E0281E962
:100A900091E00E94550280EC0E9426028DE991E0CF
:100AA0000E94550286EA91E00E94E1008AEB91E003
:100AB0000E94E10088EE93E00E94A5000E94CB0115
:100AC0000E947C03609300017093010180930201F6
:100AD0009093030120914102211531F10E943103CD
:100AE0000E949A002091160230911702409118023C
:100AF00050911902621B730B840B950B643F71407C
:100B00008105910570F00E949A006093160270931F
:100B1000170280931802909319020E9449040E94C0
:100B2000C20482E390E0C8CF20E030E040EA50E425
:100B30000E946C0618166CF180914302811549F1F0
:100B40000E94310381ED91E00E94E1000E941D04AA
:100B5000C82F8115C9F080914102811115C0809183
:100B600043020E9441038AEE91E00E94E10088EF77
:100B700091E0C23031F082EF91E0C33011F480E0B7
:100B800092E00E94E100ACCF0E94310387E092E046
:100B9000F8CF80914302811509F4A0CF80914102E2
:100BA00081119CCF809143020E94410399CF97FB12
:100BB000072E16F4009407D077FD09D00E94EB05AC
:100BC00007FC05D03EF4909581959F4F0895709550
:100BD00061957F4F0895AA1BBB1B51E107C0AA1F57
:100BE000BB1FA617B70710F0A61BB70B881F991FCE
:100BF0005A95A9F780959095BC01CD01089550585C
:100C0000BB27AA270E9417060C941F070E941107F2
:100C100038F00E94180720F039F49F3F19F426F4A9
:100C20000C940E070EF4E095E7FB0C940807E92FEF
:100C30000E94300758F3BA176207730784079507B5
:100C400020F079F4A6F50C9452070EF4E0950B2EE3
:100C5000BA2FA02D0B01B90190010C01CA01A0010E
:100C60001124FF27591B99F0593F50F4503E68F169
:100C70001A16F040A22F232F342F4427585FF3CFAA
:100C8000469537952795A795F0405395C9F77EF47B
:100C90001F16BA0B620B730B840BBAF09150A1F0C4
:100CA000FF0FBB1F661F771F881FC2F70EC0BA0F4A
:100CB000621F731F841F48F4879577956795B795D2
:100CC000F7959E3F08F0B0CF9395880F08F09927CD
:100CD000EE0F9795879508950E94E40608F481E049
:100CE00008950E9478066894B1110C9453070895F2
:100CF0000E94380788F09F5798F0B92F9927B7516D
:100D0000B0F0E1F0660F771F881F991F1AF0BA95AF
:100D1000C9F714C0B13091F00E945207B1E00895B4
:100D20000C945207672F782F8827B85F39F0B93FA6
:100D3000CCF3869577956795B395D9F73EF4909562
:100D40008095709561957F4F8F4F9F4F0895E894E0
:100D500009C097FB3EF490958095709561957F4F03
:100D60008F4F9F4F9923A9F0F92F96E9BB279395B1
:100D7000F695879577956795B795F111F8CFFAF4C1
:100D8000BB0F11F460FF1BC06F5F7F4F8F4F9F4FF2
:100D900016C0882311F096E911C0772321F09EE850
:100DA000872F762F05C0662371F096E8862F70E0B6
:100DB00060E02AF09A95660F771F881FDAF7880F90
:100DC0009695879597F90895990F0008550FAA0BE6
:100DD000E0E8FEEF16161706E807F907C0F012164E
:100DE0001306E407F50798F0621B730B840B950B51
:100DF00039F40A2661F0232B242B252B21F40895A6
:100E00000A2609F4A140A6958FEF811D811D089542
:100E100097F99F6780E870E060E008959FEF80ECAD
:100E2000089500240A941616170618060906089550
:100E300000240A9412161306140605060895092EB6
:100E40000394000C11F4882352F0BB0F40F4BF2B25
:100E500011F460FF04C06F5F7F4F8F4F9F4F089565
:100E600057FD9058440F551F59F05F3F71F047955B
:100E7000880F97FB991F61F09F3F79F08795089540
:100E8000121613061406551FF2CF4695F1DF08C05F
:100E9000161617061806991FF1CF8695710561057C
:100EA00008940895E894BB2766277727CB0197F924
:100EB00008950E94E40608F48FEF08950E947107D8
:100EC0000C941F070E94110738F00E94180720F0A9
:100ED000952311F00C9408070C940E0711240C9420
:100EE00053070E94300770F3959FC1F3950F50E0B0
:100EF000551F629FF001729FBB27F00DB11D639FCC
:100F0000AA27F00DB11DAA1F649F6627B00DA11D71
:100F1000661F829F2227B00DA11D621F739FB00D17
:100F2000A11D621F839FA00D611D221F749F332787
:100F3000A00D611D231F849F600D211D822F762F20
:100F40006A2F11249F5750409AF0F1F088234AF0FD
:100F5000EE0FFF1FBB1F661F771F881F9150504069
:100F6000A9F79E3F510580F00C9408070C94530795
:100F70005F3FE4F3983ED4F3869577956795B795F0
:100F8000F795E7959F5FC1F7FE2B880F911D96950A
:100F9000879597F90895FC0188279927E89421916E
:100FA0002032E9F3293010F02E30C8F32B3241F013
:100FB0002D3239F4689404C00E940708820F911DF5
:100FC000219120532A30C0F31EF4909581959F4FB4
:100FD0000895FB01DC018D91019080190110D9F376
:100FE000990B0895FB01DC0101900D920020E1F7BF
:100FF0000895FB01DC014150504030F08D9101908B
:10100000801919F40020B9F7881B990B08957AE02C
:10101000979F902D879F802D910D11240895F8940E
:02102000FFCF00
:1010220000C079444F4B3A5350443D0053544F5003
:10103200004F4B3A4252414B450D0A004552523A3B
:10104200554E4B4E4F574E0D0A00444953543A00E9
:10105200434C454152002C5350443A002C444952CF
:101062003A00465744005249474854004C454654BA
:10107200002C5354415455533A004F425354414368
:101082004C4500434C5200636D20533A004657448E
:101092002020004C454654200053544F502000203D
:1010A2004252414B4500204F4253542100204F4BA6
:1010B20000414441532053797374656D0052656158
:1010C20064792E2E2E004144415320537973746566
:1010D2006D2052656164790D0A00434D443A2053F4
:1010E20050443A302D3235352C2053544F500D0A8E
:1010F200004F42535441434C452120536561726372
:1011020068696E672E2E2E0D0A00436C6561723A75
:1011120020004657440D0A0052494748540D0A0020
:101122004C4546540D0A00416C6C20626C6F636B37
:061132006564210D0A00B6
:00000001FF
