:100000000C9434000C9451000C9451000C94510049
:100010000C9451000C9451000C9451000C9451001C
:100020000C9451000C9451000C9451000C9451000C
:100030000C9451000C9451000C945C000C945100F1
:100040000C9451000C9451000C9432010C9451000A
:100050000C9451000C9451000C9451000C945100DC
:100060000C9451000C94510011241FBECFEFD8E026
:10007000DEBFCDBF12E0A0E0B1E0ECE2F0E102C0F3
:1000800005900D92A435B107D9F722E0A4E5B2E0BE
:1000900001C01D92A738B207E1F70E94D6040C9464
:1000A00014080C94000082E084BD93E095BD99EFA4
:1000B00097BD80936E0008951F921FB61F92112462
:1000C0008F939F93AF93BF9380915C0290915D0259
:1000D000A0915E02B0915F020196A11DB11D8093B7
:1000E0005C0290935D02A0935E02B0935F02BF91A9
:1000F000AF919F918F911F901FBE1F901895F894FC
:1001000060915C0270915D0280915E0290915F024D
:1001100078940895CF93DF9300D000D000D0CDB76E
:10012000DEB789839A830E947F006B837C838D83F3
:100130009E830E947F002B813C814D815E81621BEA
:10014000730B840B950B49815A81641775078105E0
:10015000910578F30F900F900F900F900F900F90E4
:10016000DF91CF9108951092C50087E68093C40077
:1001700088E98093C10086E08093C2000895909141
:10018000C00095FFFCCF8093C6000895CF93DF9306
:10019000EC018881811103C0DF91CF9108952196F0
:1001A0000E94BF00F6CF0E94C6008DE00E94BF00F3
:1001B0008AE00C94BF00DF92EF92FF920F931F939F
:1001C000CF93DF93CDB7DEB728970FB6F894DEBF95
:1001D0000FBECDBF8C0100976CF58DE20E94BF0071
:1001E000119501951109FE01319620E07F01C801AA
:1001F0006AE070E00E942706DD24D394D20E805D71
:1002000080838B01672B21F02D2D3196273079F7D4
:10021000DA948FEFD8121FC028960FB6F894DEBF7D
:100220000FBECDBFDF91CF911F910F91FF90EF9047
:10023000DF900895C1F680E328960FB6F894DEBFEC
:100240000FBECDBFDF91CF911F910F91FF90EF9027
:10025000DF900C94BF00F701ED0DF11D80810E942D
:10026000BF00D6CF1F921FB61F9211248F939F936A
:10027000EF93FF938091C6008A3011F08D30B9F46E
:1002800080916102811549F0E0916102F0E0EE5940
:10029000FD4F108281E08093600210926102FF9115
:1002A000EF919F918F911F901FBE1F901895909175
:1002B00061029F31A0F7E091610291E09E0F90935F
:1002C0006102F0E0EE59FD4F8083E9CFCF93DF93D9
:1002D000CDB7DEB7A0970FB6F894DEBF0FBECDBF87
:1002E00080916002811509F43DC0F89462E672E0E5
:1002F000CE0101960E94F70710926002789484E084
:1003000091E00E94C600CE0101960E94D30044E015
:1003100050E06AE071E0CE0101960E94FE07892B51
:1003200071F5CE0105960E94D0079C0131301CF179
:100330002FEF20938602109284029091860281E032
:10034000911101C080E0809383028FE091E00E94D0
:10035000C6008091860290E00E94DB0082E592E078
:100360000E94D300A0960FB6F894DEBF0FBECDBF9B
:10037000DF91CF91089537FFDCCF20E0DACF62E143
:1003800072E0CE0101960E94EE07892B51F481E0C4
:1003900080938402109283021092860288E191E099
:1003A000DFCF6FEE71E0CE0101960E94EE07892B40
:1003B00041F41092840281E0809383028FEE91E0F9
:1003C000CFCF81E291E0CCCF5F9A8AE08A95F1F7B6
:1003D00000C05F988FE891E00197F1F700C000003E
:1003E000089595B19E7D95B998B1937F98B980FD98
:1003F000289A81FD2D9A82FD429A83FD439A0C949E
:10040000E401CF93C82F6115B1F05A9A8AE18A9519
:10041000F1F700C08C2F82958F700E94F1018C2F14
:100420008F700E94F10187EC90E00197F1F700C016
:100430000000CF9108955A98E9CFCF93DF930F92A0
:10044000CDB7DEB7898360E00E94010289818150C7
:10045000823030F48FE39FE10197F1F700C0000094
:100460000F90DF91CF91089561E00C940102CF933A
:10047000DF93EC018881811103C0DF91CF91089552
:1004800021960E943402F6CF91E0811101C090E0E4
:1004900080E4899F802D1124860F80680C941D02B2
:1004A00081E00E941D028FE39FE10197F1F700C0F8
:1004B00000000895DF92EF92FF920F931F93CF9366
:1004C000DF93CDB7DEB728970FB6F894DEBF0FBE27
:1004D000CDBF8C0100976CF58DE20E94340211951E
:1004E00001951109FE01319620E07F01C8016AE003
:1004F00070E00E942706DD24D394D20E805D8083B5
:100500008B01672B21F02D2D3196273079F7DA9466
:100510008FEFD8121FC028960FB6F894DEBF0FBE1B
:10052000CDBFDF91CF911F910F91FF90EF90DF90A2
:100530000895C1F680E328960FB6F894DEBF0FBE8B
:10054000CDBFDF91CF911F910F91FF90EF90DF9082
:100550000C943402F701ED0DF11D80810E943402EC
:10056000D6CF8AB184688AB984B1816284B987B1EF
:100570008C6087B98BB18B778BB985B18E7D85B94E
:1005800088B1837F88B92FEF80E792E021508040C7
:100590009040E1F700C0000083E00E94F1018FE18C
:1005A0009EE40197F1F700C0000083E00E94F10192
:1005B0008FE99FE00197F1F700C0000083E00E94FF
:1005C000F1018FE99FE00197F1F700C0000082E0A0
:1005D0000E94F1018FE99FE00197F1F700C0000050
:1005E00088E20E941D028FE99FE00197F1F700C0A9
:1005F00000008CE00E941D028FE99FE00197F1F757
:1006000000C0000086E00E941D028FE99FE0019774
:10061000F1F700C0000081E00E941D028FE39FE11E
:100620000197F1F700C0000008958AB188678AB980
:1006300084B1866084B98BB187788BB910928900B8
:100640001092880010928B0010928A0081EA8093A9
:1006500080008AE0809381000895109289001092B2
:10066000880010928B0010928A008BB187788BB92A
:10067000109285021092820208955B9A5C985D9AAE
:100680005E98282F30E030938900209388003093C3
:100690008B0020938A008093850281E08093820200
:1006A00008955B9A5C985D985E9A282F30E03093AD
:1006B00089002093880030938B0020938A008093D8
:1006C000850282E08093820208955B985C9A5D9A2D
:1006D0005E98282F30E03093890020938800309373
:1006E0008B0020938A008093850283E080938202AE
:1006F0000895249A23982C982B9808950F931F936C
:10070000CF93DF932C982AE02A95F1F700C02C9A1A
:1007100085E38A95F1F700002C9860E375E780E0A7
:1007200090E01B9933C000977040604031F51B9BEF
:100730004AC0603325E7720781059105B9F50E942B
:10074000AC0628E23EE74CE05DE30E943B0720E078
:1007500030E040E05FE30E943B078B01D82FC92FB8
:1007600020E030E048EC53E40E9436071816B4F459
:1007700000E010E0C3E4D8EC11C0615071098109B8
:10078000910925E02A95F1F70000CBCF672B682B64
:10079000692BA9F400E010ECC4E4D9E7B8018D2F6F
:1007A0009C2FDF91CF911F910F91089525E02A95FD
:1007B000F1F700006F5F7F4F8F4F9F4FB8CF80E002
:1007C00090E0BC01B4CF603325E772078105910545
:1007D00009F0B5CFDFCF8DE291E00E94D30086E92A
:1007E0000E94510380E991E00E948A000E942D033B
:1007F00088EC90E00C948A0086E391E00E94D3009C
:1008000086E90E94650380E293E00E948A000E94CC
:100810002D0388EC90E00C948A0080E491E00E9423
:10082000D30086E90E94510380E293E00E948A008F
:100830000E942D0388EC90E00C948A00CF93DF9304
:1008400000D000D00F92CDB7DEB789E491E00E94CE
:10085000D3000E94EB030E947E0369837A838B831B
:100860009C8387E591E00E94C60069817A818B8133
:100870009C810E947606CB010E94DB008AE591E014
:100880000E94D30020E030E040EA50E469817A81A0
:100890008B819C810E94360718160CF45EC08DE592
:1008A00091E00E94D3000E94FC030E947E036983B2
:1008B0007A838B839C838AE691E00E94C6006981DB
:1008C0007A818B819C810E947606CB010E94DB009D
:1008D0008AE591E00E94D30020E030E040EA50E455
:1008E00069817A818B819C810E9436071816C4F138
:1008F0008DE691E00E94D3000E940D040E947E03C9
:1009000069837A838B839C838AE791E00E94C60087
:1009100069817A818B819C810E947606CB010E943D
:10092000DB008AE591E00E94D30081E08D8320E026
:1009300030E040EA50E469817A818B819C810E9499
:10094000360718160CF01D828D810F900F900F90B6
:100950000F900F90DF91CF91089582E08D83F4CFB7
:1009600083E0FCCF8DE791E00E94D3000E942D032D
:1009700088EC90E00E948A000E941E0490918402FC
:10098000911539F08CE891E00E94D3001092830217
:100990000895811103C089E991E0F6CF85EA91E0DD
:1009A0000E94D300809186020C943D030E9415039F
:1009B0000E9479030E94B3000E94B1020E9453007A
:1009C00078940E94500281EB91E00E94370282E508
:1009D00092E00E94D3008CEB91E00E94D3008DEC5A
:1009E00091E00E94D3008CEB91E00E94D3008DED4A
:1009F00091E00E94D30082E592E00E94D30088EE4D
:100A000093E00E948A008091540290915502A09137
:100A10005602B09157020196A11DB11D8093540258
:100A200090935502A0935602B09357020E9466011C
:100A30000E947E0360930001709301018093020184
:100A40009093030160915402709155028091560277
:100A50009091570224E130E040E050E00E943B06D4
:100A6000672B682B692B09F043C082EF91E00E944D
:100A7000C60080915402909155020E94DB0084EFE1
:100A800091E00E94C6006091000170910101809187
:100A90000201909103010E947606CB010E94DB00C7
:100AA00082E191E00E94C6008091850290E00E9460
:100AB000DB0089EF91E00E94C6008091860290E001
:100AC0000E94DB008FEF91E00E94C60080918302BC
:100AD00090E00E94DB0085E092E00E94C6008091D9
:100AE000840290E00E94DB0082E592E00E94D30045
:100AF00080918402811559F080918502811521F140
:100B00008BE092E00E94D3000E942D031DC08091D3
:100B10008302811509F486C080918602811509F44B
:100B200081C020E030E040EA50E460910001709123
:100B3000010180910201909103010E947106181633
:100B40000CF463C00E94B2040E947F0020915802FE
:100B50003091590240915A0250915B02621B730B13
:100B6000840B950B643F71408105910508F44AC0E0
:100B70000E947F00609358027093590280935A023A
:100B800090935B0280E80E941D028CE091E00E943D
:100B900037026091000170910101809102019091F2
:100BA00003010E947606CB010E945A028CE292E079
:100BB0000E9437028091850290E00E945A0280E5EF
:100BC00092E00E94370280EC0E941D028091840214
:100BD000811581F182E392E00E94370220E030E04B
:100BE00040EA50E46091000170910101809102019E
:100BF000909103010E947106181634F187E492E087
:100C00000E94370282E390E0FCCE80918502811140
:100C10009BCF87E192E00E94D300809186020E94E0
:100C20003D0392CF80918502811509F48DCF81E239
:100C300092E068CF80918302811519F089E392E0F8
:100C4000CBCF80E492E0C8CF8DE492E0D9CF97FB80
:100C5000072E16F4009407D077FD09D00E945D0698
:100C600007FC05D03EF4909581959F4F08957095AF
:100C700061957F4F0895A1E21A2EAA1BBB1BFD01AF
:100C80000DC0AA1FBB1FEE1FFF1FA217B307E4076B
:100C9000F50720F0A21BB30BE40BF50B661F771FC3
:100CA000881F991F1A9469F76095709580959095A3
:100CB0009B01AC01BD01CF010895AA1BBB1B51E1F3
:100CC00007C0AA1FBB1FA617B70710F0A61BB70BBC
:100CD000881F991F5A95A9F780959095BC01CD0161
:100CE00008950E94E90608F481E008950E947D06B7
:100CF0006894B1110C94300708950E94150788F08C
:100D00009F5798F0B92F9927B751B0F0E1F0660FCF
:100D1000771F881F991F1AF0BA95C9F714C0B13010
:100D200091F00E942F07B1E008950C942F07672FD0
:100D3000782F8827B85F39F0B93FCCF3869577953F
:100D40006795B395D9F73EF4909580957095619528
:100D50007F4F8F4F9F4F0895E89409C097FB3EF453
:100D600090958095709561957F4F8F4F9F4F9923F8
:100D7000A9F0F92F96E9BB279395F6958795779576
:100D80006795B795F111F8CFFAF4BB0F11F460FF36
:100D90001BC06F5F7F4F8F4F9F4F16C0882311F08E
:100DA00096E911C0772321F09EE8872F762F05C0A2
:100DB000662371F096E8862F70E060E02AF09A953D
:100DC000660F771F881FDAF7880F9695879597F932
:100DD0000895990F0008550FAA0BE0E8FEEF1616CC
:100DE0001706E807F907C0F012161306E407F5071F
:100DF00098F0621B730B840B950B39F40A2661F093
:100E0000232B242B252B21F408950A2609F4A14035
:100E1000A6958FEF811D811D089557FD9058440FB1
:100E2000551F59F05F3F71F04795880F97FB991F49
:100E300061F09F3F79F08795089512161306140606
:100E4000551FF2CF4695F1DF08C016161706180693
:100E5000991FF1CF86957105610508940895E8946E
:100E6000BB2766277727CB0197F908950E94E906EB
:100E700008F48FEF08950E944E070C94BF070E945C
:100E8000B10738F00E94B80720F0952311F00C94B8
:100E9000A8070C94AE0711240C9430070E940D078C
:100EA00070F3959FC1F3950F50E0551F629FF001BD
:100EB000729FBB27F00DB11D639FAA27F00DB11DD6
:100EC000AA1F649F6627B00DA11D661F829F22275F
:100ED000B00DA11D621F739FB00DA11D621F839FE6
:100EE000A00D611D221F749F3327A00D611D231FBC
:100EF000849F600D211D822F762F6A2F11249F570A
:100F000050409AF0F1F088234AF0EE0FFF1FBB1F0C
:100F1000661F771F881F91505040A9F79E3F5105CB
:100F200080F00C94A8070C9430075F3FE4F3983EE0
:100F3000D4F3869577956795B795F795E7959F5F75
:100F4000C1F7FE2B880F911D9695879597F9089507
:100F500097F99F6780E870E060E008959FEF80EC6C
:100F6000089500240A94161617061806090608950F
:100F700000240A9412161306140605060895092E75
:100F80000394000C11F4882352F0BB0F40F4BF2BE4
:100F900011F460FF04C06F5F7F4F8F4F9F4F089524
:100FA000FC0188279927E89421912032E9F3293020
:100FB00010F02E30C8F32B3241F02D3239F4689402
:100FC00004C00E940C08820F911D219120532A30E9
:100FD000C0F31EF4909581959F4F0895FB01DC01AD
:100FE0008D91019080190110D9F3990B0895FB019F
:100FF000DC0101900D920020E1F70895FB01DC0176
:101000004150504030F08D910190801919F400202A
:10101000B9F7881B990B08957AE0979F902D879FC9
:0C102000802D910D11240895F894FFCF4D
:10102C0000C07944434D443A20005350443A005395
:10103C004554205350443D004252414B45204F4EA5
:10104C0000554E4B4E4F574E20434D440054555275
:10105C004E20523930005455524E204C313830000D
:10106C005350494E20313830005345415243483A91
:10107C0020524947485400523D00636D005345418E
:10108C005243483A204C454654004C3D0053454190
:10109C005243483A204241434B00423D002121201B
:1010AC004F42535441434C45202121004252414B65
:1010BC00452041435449564500414C4C20424C4F2D
:1010CC00434B454400434C45415220464F554E44FA
:1010DC00004445425547204D4F4445003D3D3D3D64
:1010EC003D3D3D3D3D3D3D3D3D3D3D3D0041444152
:1010FC00532044454255472076312E3000434D4411
:10110C003A205350443A7878782053544F50204723
:10111C004F005B005D20443D00205447543D0020AF
:10112C004D4F563D002042524B3D004252414B45E3
:10113C002D3E53544F500053544152542046574463
:10114C000049444C452D3E53544F5000636D205381
:10115C003A004252414B45200052554E202020006F
:10116C0049444C452020004F42535421004F4B2002
:04117C00202000002F
:00000001FF
